{
  "_format": "hh-sol-artifact-1",
  "contractName": "SupplyChainTracker",
  "sourceName": "contracts/SupplyChainTracker.sol",
  "abi": [
    {
      "inputs": [],
      "stateMutability": "nonpayable",
      "type": "constructor"
    },
    {
      "inputs": [
        {
          "internalType": "address",
          "name": "sender",
          "type": "address"
        },
        {
          "internalType": "uint256",
          "name": "tokenId",
          "type": "uint256"
        },
        {
          "internalType": "address",
          "name": "owner",
          "type": "address"
        }
      ],
      "name": "ERC721IncorrectOwner",
      "type": "error"
    },
    {
      "inputs": [
        {
          "internalType": "address",
          "name": "operator",
          "type": "address"
        },
        {
          "internalType": "uint256",
          "name": "tokenId",
          "type": "uint256"
        }
      ],
      "name": "ERC721InsufficientApproval",
      "type": "error"
    },
    {
      "inputs": [
        {
          "internalType": "address",
          "name": "approver",
          "type": "address"
        }
      ],
      "name": "ERC721InvalidApprover",
      "type": "error"
    },
    {
      "inputs": [
        {
          "internalType": "address",
          "name": "operator",
          "type": "address"
        }
      ],
      "name": "ERC721InvalidOperator",
      "type": "error"
    },
    {
      "inputs": [
        {
          "internalType": "address",
          "name": "owner",
          "type": "address"
        }
      ],
      "name": "ERC721InvalidOwner",
      "type": "error"
    },
    {
      "inputs": [
        {
          "internalType": "address",
          "name": "receiver",
          "type": "address"
        }
      ],
      "name": "ERC721InvalidReceiver",
      "type": "error"
    },
    {
      "inputs": [
        {
          "internalType": "address",
          "name": "sender",
          "type": "address"
        }
      ],
      "name": "ERC721InvalidSender",
      "type": "error"
    },
    {
      "inputs": [
        {
          "internalType": "uint256",
          "name": "tokenId",
          "type": "uint256"
        }
      ],
      "name": "ERC721NonexistentToken",
      "type": "error"
    },
    {
      "inputs": [
        {
          "internalType": "address",
          "name": "owner",
          "type": "address"
        }
      ],
      "name": "OwnableInvalidOwner",
      "type": "error"
    },
    {
      "inputs": [
        {
          "internalType": "address",
          "name": "account",
          "type": "address"
        }
      ],
      "name": "OwnableUnauthorizedAccount",
      "type": "error"
    },
    {
      "anonymous": false,
      "inputs": [
        {
          "indexed": true,
          "internalType": "address",
          "name": "owner",
          "type": "address"
        },
        {
          "indexed": true,
          "internalType": "address",
          "name": "approved",
          "type": "address"
        },
        {
          "indexed": true,
          "internalType": "uint256",
          "name": "tokenId",
          "type": "uint256"
        }
      ],
      "name": "Approval",
      "type": "event"
    },
    {
      "anonymous": false,
      "inputs": [
        {
          "indexed": true,
          "internalType": "address",
          "name": "owner",
          "type": "address"
        },
        {
          "indexed": true,
          "internalType": "address",
          "name": "operator",
          "type": "address"
        },
        {
          "indexed": false,
          "internalType": "bool",
          "name": "approved",
          "type": "bool"
        }
      ],
      "name": "ApprovalForAll",
      "type": "event"
    },
    {
      "anonymous": false,
      "inputs": [
        {
          "indexed": true,
          "internalType": "uint256",
          "name": "batchId",
          "type": "uint256"
        },
        {
          "indexed": true,
          "internalType": "address",
          "name": "manufacturer",
          "type": "address"
        },
        {
          "indexed": false,
          "internalType": "string",
          "name": "metadataURI",
          "type": "string"
        },
        {
          "indexed": false,
          "internalType": "uint256[]",
          "name": "productIds",
          "type": "uint256[]"
        }
      ],
      "name": "BatchCreated",
      "type": "event"
    },
    {
      "anonymous": false,
      "inputs": [
        {
          "indexed": false,
          "internalType": "uint256",
          "name": "_fromTokenId",
          "type": "uint256"
        },
        {
          "indexed": false,
          "internalType": "uint256",
          "name": "_toTokenId",
          "type": "uint256"
        }
      ],
      "name": "BatchMetadataUpdate",
      "type": "event"
    },
    {
      "anonymous": false,
      "inputs": [
        {
          "indexed": true,
          "internalType": "uint256",
          "name": "batchId",
          "type": "uint256"
        },
        {
          "indexed": true,
          "internalType": "address",
          "name": "to",
          "type": "address"
        },
        {
          "indexed": false,
          "internalType": "uint256",
          "name": "tokenId",
          "type": "uint256"
        }
      ],
      "name": "BatchNFTMinted",
      "type": "event"
    },
    {
      "anonymous": false,
      "inputs": [
        {
          "indexed": false,
          "internalType": "uint256",
          "name": "_tokenId",
          "type": "uint256"
        }
      ],
      "name": "MetadataUpdate",
      "type": "event"
    },
    {
      "anonymous": false,
      "inputs": [
        {
          "indexed": true,
          "internalType": "address",
          "name": "previousOwner",
          "type": "address"
        },
        {
          "indexed": true,
          "internalType": "address",
          "name": "newOwner",
          "type": "address"
        }
      ],
      "name": "OwnershipTransferred",
      "type": "event"
    },
    {
      "anonymous": false,
      "inputs": [
        {
          "indexed": true,
          "internalType": "uint256",
          "name": "productId",
          "type": "uint256"
        },
        {
          "indexed": true,
          "internalType": "address",
          "name": "manufacturer",
          "type": "address"
        },
        {
          "indexed": false,
          "internalType": "string",
          "name": "name",
          "type": "string"
        },
        {
          "indexed": true,
          "internalType": "uint256",
          "name": "batchId",
          "type": "uint256"
        }
      ],
      "name": "ProductCreated",
      "type": "event"
    },
    {
      "anonymous": false,
      "inputs": [
        {
          "indexed": true,
          "internalType": "uint256",
          "name": "productId",
          "type": "uint256"
        },
        {
          "indexed": true,
          "internalType": "address",
          "name": "from",
          "type": "address"
        },
        {
          "indexed": true,
          "internalType": "address",
          "name": "to",
          "type": "address"
        },
        {
          "indexed": false,
          "internalType": "string",
          "name": "location",
          "type": "string"
        }
      ],
      "name": "ProductTransferred",
      "type": "event"
    },
    {
      "anonymous": false,
      "inputs": [
        {
          "indexed": true,
          "internalType": "uint256",
          "name": "productId",
          "type": "uint256"
        },
        {
          "indexed": true,
          "internalType": "address",
          "name": "customer",
          "type": "address"
        }
      ],
      "name": "ProductVerified",
      "type": "event"
    },
    {
      "anonymous": false,
      "inputs": [
        {
          "indexed": true,
          "internalType": "address",
          "name": "from",
          "type": "address"
        },
        {
          "indexed": true,
          "internalType": "address",
          "name": "to",
          "type": "address"
        },
        {
          "indexed": true,
          "internalType": "uint256",
          "name": "tokenId",
          "type": "uint256"
        }
      ],
      "name": "Transfer",
      "type": "event"
    },
    {
      "anonymous": false,
      "inputs": [
        {
          "indexed": true,
          "internalType": "uint256",
          "name": "productId",
          "type": "uint256"
        },
        {
          "indexed": true,
          "internalType": "uint256",
          "name": "batchId",
          "type": "uint256"
        },
        {
          "indexed": true,
          "internalType": "address",
          "name": "verifier",
          "type": "address"
        }
      ],
      "name": "ZKProofVerified",
      "type": "event"
    },
    {
      "inputs": [
        {
          "internalType": "address",
          "name": "to",
          "type": "address"
        },
        {
          "internalType": "uint256",
          "name": "tokenId",
          "type": "uint256"
        }
      ],
      "name": "approve",
      "outputs": [],
      "stateMutability": "nonpayable",
      "type": "function"
    },
    {
      "inputs": [
        {
          "internalType": "address",
          "name": "",
          "type": "address"
        }
      ],
      "name": "authorizedManufacturer",
      "outputs": [
        {
          "internalType": "bool",
          "name": "",
          "type": "bool"
        }
      ],
      "stateMutability": "view",
      "type": "function"
    },
    {
      "inputs": [
        {
          "internalType": "address",
          "name": "owner",
          "type": "address"
        }
      ],
      "name": "balanceOf",
      "outputs": [
        {
          "internalType": "uint256",
          "name": "",
          "type": "uint256"
        }
      ],
      "stateMutability": "view",
      "type": "function"
    },
    {
      "inputs": [
        {
          "internalType": "string",
          "name": "metadataURI",
          "type": "string"
        },
        {
          "internalType": "string[]",
          "name": "productNames",
          "type": "string[]"
        },
        {
          "internalType": "string[]",
          "name": "manufactureDates",
          "type": "string[]"
        }
      ],
      "name": "createBatch",
      "outputs": [
        {
          "internalType": "uint256",
          "name": "",
          "type": "uint256"
        }
      ],
      "stateMutability": "nonpayable",
      "type": "function"
    },
    {
      "inputs": [
        {
          "internalType": "string",
          "name": "name",
          "type": "string"
        },
        {
          "internalType": "string",
          "name": "date",
          "type": "string"
        }
      ],
      "name": "createProduct",
      "outputs": [
        {
          "internalType": "uint256",
          "name": "",
          "type": "uint256"
        }
      ],
      "stateMutability": "nonpayable",
      "type": "function"
    },
    {
      "inputs": [
        {
          "internalType": "uint256",
          "name": "tokenId",
          "type": "uint256"
        }
      ],
      "name": "getApproved",
      "outputs": [
        {
          "internalType": "address",
          "name": "",
          "type": "address"
        }
      ],
      "stateMutability": "view",
      "type": "function"
    },
    {
      "inputs": [
        {
          "internalType": "uint256",
          "name": "batchId",
          "type": "uint256"
        }
      ],
      "name": "getBatch",
      "outputs": [
        {
          "internalType": "address",
          "name": "manufacturer",
          "type": "address"
        },
        {
          "internalType": "string",
          "name": "metadataURI",
          "type": "string"
        },
        {
          "internalType": "uint256",
          "name": "createdAt",
          "type": "uint256"
        },
        {
          "internalType": "uint256[]",
          "name": "productIds",
          "type": "uint256[]"
        },
        {
          "internalType": "address",
          "name": "nftOwner",
          "type": "address"
        }
      ],
      "stateMutability": "view",
      "type": "function"
    },
    {
      "inputs": [
        {
          "internalType": "uint256",
          "name": "batchId",
          "type": "uint256"
        }
      ],
      "name": "getBatchProductIds",
      "outputs": [
        {
          "internalType": "uint256[]",
          "name": "",
          "type": "uint256[]"
        }
      ],
      "stateMutability": "view",
      "type": "function"
    },
    {
      "inputs": [
        {
          "internalType": "uint256",
          "name": "productId",
          "type": "uint256"
        }
      ],
      "name": "getProduct",
      "outputs": [
        {
          "internalType": "address",
          "name": "manufacturer",
          "type": "address"
        },
        {
          "internalType": "address",
          "name": "currentHolder",
          "type": "address"
        },
        {
          "internalType": "bool",
          "name": "verifiedByCustomer",
          "type": "bool"
        },
        {
          "internalType": "bool",
          "name": "isAuthentic",
          "type": "bool"
        },
        {
          "internalType": "address",
          "name": "customer",
          "type": "address"
        },
        {
          "internalType": "uint256",
          "name": "batchId",
          "type": "uint256"
        }
      ],
      "stateMutability": "view",
      "type": "function"
    },
    {
      "inputs": [
        {
          "internalType": "uint256",
          "name": "productId",
          "type": "uint256"
        }
      ],
      "name": "getProductBatchId",
      "outputs": [
        {
          "internalType": "uint256",
          "name": "",
          "type": "uint256"
        }
      ],
      "stateMutability": "view",
      "type": "function"
    },
    {
      "inputs": [
        {
          "internalType": "uint256",
          "name": "productId",
          "type": "uint256"
        }
      ],
      "name": "getTransferHistory",
      "outputs": [
        {
          "components": [
            {
              "internalType": "address",
              "name": "from",
              "type": "address"
            },
            {
              "internalType": "address",
              "name": "to",
              "type": "address"
            },
            {
              "internalType": "string",
              "name": "location",
              "type": "string"
            },
            {
              "internalType": "uint256",
              "name": "timestamp",
              "type": "uint256"
            }
          ],
          "internalType": "struct SupplyChainTracker.ProductTransfer[]",
          "name": "",
          "type": "tuple[]"
        }
      ],
      "stateMutability": "view",
      "type": "function"
    },
    {
      "inputs": [
        {
          "internalType": "address",
          "name": "owner",
          "type": "address"
        },
        {
          "internalType": "address",
          "name": "operator",
          "type": "address"
        }
      ],
      "name": "isApprovedForAll",
      "outputs": [
        {
          "internalType": "bool",
          "name": "",
          "type": "bool"
        }
      ],
      "stateMutability": "view",
      "type": "function"
    },
    {
      "inputs": [],
      "name": "name",
      "outputs": [
        {
          "internalType": "string",
          "name": "",
          "type": "string"
        }
      ],
      "stateMutability": "view",
      "type": "function"
    },
    {
      "inputs": [],
      "name": "nextBatchId",
      "outputs": [
        {
          "internalType": "uint256",
          "name": "",
          "type": "uint256"
        }
      ],
      "stateMutability": "view",
      "type": "function"
    },
    {
      "inputs": [],
      "name": "nextProductId",
      "outputs": [
        {
          "internalType": "uint256",
          "name": "",
          "type": "uint256"
        }
      ],
      "stateMutability": "view",
      "type": "function"
    },
    {
      "inputs": [],
      "name": "owner",
      "outputs": [
        {
          "internalType": "address",
          "name": "",
          "type": "address"
        }
      ],
      "stateMutability": "view",
      "type": "function"
    },
    {
      "inputs": [
        {
          "internalType": "uint256",
          "name": "tokenId",
          "type": "uint256"
        }
      ],
      "name": "ownerOf",
      "outputs": [
        {
          "internalType": "address",
          "name": "",
          "type": "address"
        }
      ],
      "stateMutability": "view",
      "type": "function"
    },
    {
      "inputs": [],
      "name": "renounceOwnership",
      "outputs": [],
      "stateMutability": "nonpayable",
      "type": "function"
    },
    {
      "inputs": [
        {
          "internalType": "address",
          "name": "from",
          "type": "address"
        },
        {
          "internalType": "address",
          "name": "to",
          "type": "address"
        },
        {
          "internalType": "uint256",
          "name": "tokenId",
          "type": "uint256"
        }
      ],
      "name": "safeTransferFrom",
      "outputs": [],
      "stateMutability": "nonpayable",
      "type": "function"
    },
    {
      "inputs": [
        {
          "internalType": "address",
          "name": "from",
          "type": "address"
        },
        {
          "internalType": "address",
          "name": "to",
          "type": "address"
        },
        {
          "internalType": "uint256",
          "name": "tokenId",
          "type": "uint256"
        },
        {
          "internalType": "bytes",
          "name": "data",
          "type": "bytes"
        }
      ],
      "name": "safeTransferFrom",
      "outputs": [],
      "stateMutability": "nonpayable",
      "type": "function"
    },
    {
      "inputs": [
        {
          "internalType": "address",
          "name": "operator",
          "type": "address"
        },
        {
          "internalType": "bool",
          "name": "approved",
          "type": "bool"
        }
      ],
      "name": "setApprovalForAll",
      "outputs": [],
      "stateMutability": "nonpayable",
      "type": "function"
    },
    {
      "inputs": [
        {
          "internalType": "address",
          "name": "account",
          "type": "address"
        },
        {
          "internalType": "bool",
          "name": "isAuthorized",
          "type": "bool"
        }
      ],
      "name": "setManufacturer",
      "outputs": [],
      "stateMutability": "nonpayable",
      "type": "function"
    },
    {
      "inputs": [
        {
          "internalType": "address",
          "name": "verifierAddress",
          "type": "address"
        }
      ],
      "name": "setZKVerifier",
      "outputs": [],
      "stateMutability": "nonpayable",
      "type": "function"
    },
    {
      "inputs": [
        {
          "internalType": "bytes4",
          "name": "interfaceId",
          "type": "bytes4"
        }
      ],
      "name": "supportsInterface",
      "outputs": [
        {
          "internalType": "bool",
          "name": "",
          "type": "bool"
        }
      ],
      "stateMutability": "view",
      "type": "function"
    },
    {
      "inputs": [],
      "name": "symbol",
      "outputs": [
        {
          "internalType": "string",
          "name": "",
          "type": "string"
        }
      ],
      "stateMutability": "view",
      "type": "function"
    },
    {
      "inputs": [
        {
          "internalType": "uint256",
          "name": "tokenId",
          "type": "uint256"
        }
      ],
      "name": "tokenURI",
      "outputs": [
        {
          "internalType": "string",
          "name": "",
          "type": "string"
        }
      ],
      "stateMutability": "view",
      "type": "function"
    },
    {
      "inputs": [
        {
          "internalType": "address",
          "name": "from",
          "type": "address"
        },
        {
          "internalType": "address",
          "name": "to",
          "type": "address"
        },
        {
          "internalType": "uint256",
          "name": "tokenId",
          "type": "uint256"
        }
      ],
      "name": "transferFrom",
      "outputs": [],
      "stateMutability": "nonpayable",
      "type": "function"
    },
    {
      "inputs": [
        {
          "internalType": "address",
          "name": "newOwner",
          "type": "address"
        }
      ],
      "name": "transferOwnership",
      "outputs": [],
      "stateMutability": "nonpayable",
      "type": "function"
    },
    {
      "inputs": [
        {
          "internalType": "uint256",
          "name": "productId",
          "type": "uint256"
        },
        {
          "internalType": "address",
          "name": "to",
          "type": "address"
        },
        {
          "internalType": "string",
          "name": "location",
          "type": "string"
        }
      ],
      "name": "transferProduct",
      "outputs": [],
      "stateMutability": "nonpayable",
      "type": "function"
    },
    {
      "inputs": [
        {
          "internalType": "uint256",
          "name": "",
          "type": "uint256"
        }
      ],
      "name": "verifiedProofs",
      "outputs": [
        {
          "internalType": "bool",
          "name": "",
          "type": "bool"
        }
      ],
      "stateMutability": "view",
      "type": "function"
    },
    {
      "inputs": [
        {
          "internalType": "uint256",
          "name": "productId",
          "type": "uint256"
        }
      ],
      "name": "verifyAsCustomer",
      "outputs": [],
      "stateMutability": "nonpayable",
      "type": "function"
    },
    {
      "inputs": [
        {
          "internalType": "uint256",
          "name": "productId",
          "type": "uint256"
        },
        {
          "internalType": "uint256",
          "name": "batchId",
          "type": "uint256"
        },
        {
          "components": [
            {
              "internalType": "uint256[2]",
              "name": "a",
              "type": "uint256[2]"
            },
            {
              "internalType": "uint256[2][2]",
              "name": "b",
              "type": "uint256[2][2]"
            },
            {
              "internalType": "uint256[2]",
              "name": "c",
              "type": "uint256[2]"
            },
            {
              "internalType": "uint256[]",
              "name": "publicSignals",
              "type": "uint256[]"
            }
          ],
          "internalType": "struct SupplyChainTracker.ZKProof",
          "name": "",
          "type": "tuple"
        }
      ],
      "name": "verifyZKProof",
      "outputs": [],
      "stateMutability": "nonpayable",
      "type": "function"
    },
    {
      "inputs": [],
      "name": "zkVerificationEnabled",
      "outputs": [
        {
          "internalType": "bool",
          "name": "",
          "type": "bool"
        }
      ],
      "stateMutability": "view",
      "type": "function"
    },
    {
      "inputs": [],
      "name": "zkVerifierAddress",
      "outputs": [
        {
          "internalType": "address",
          "name": "",
          "type": "address"
        }
      ],
      "stateMutability": "view",
      "type": "function"
    }
  ],
  "bytecode": "0x60806040526001600d556001600e556000600f60146101000a81548160ff0219169083151502179055503480156200003657600080fd5b50336040518060400160405280601081526020017f537570706c79436861696e4261746368000000000000000000000000000000008152506040518060400160405280600781526020017f53434241544348000000000000000000000000000000000000000000000000008152508160009081620000b59190620004ef565b508060019081620000c79190620004ef565b505050600073ffffffffffffffffffffffffffffffffffffffff168173ffffffffffffffffffffffffffffffffffffffff16036200013f5760006040517f1e4fbdf70000000000000000000000000000000000000000000000000000000081526004016200013691906200061b565b60405180910390fd5b6200015081620001af60201b60201c565b506001600b60003373ffffffffffffffffffffffffffffffffffffffff1673ffffffffffffffffffffffffffffffffffffffff16815260200190815260200160002060006101000a81548160ff02191690831515021790555062000638565b6000600760009054906101000a900473ffffffffffffffffffffffffffffffffffffffff16905081600760006101000a81548173ffffffffffffffffffffffffffffffffffffffff021916908373ffffffffffffffffffffffffffffffffffffffff1602179055508173ffffffffffffffffffffffffffffffffffffffff168173ffffffffffffffffffffffffffffffffffffffff167f8be0079c531659141344cd1fd0a4f28419497f9722a3daafe3b4186f6b6457e060405160405180910390a35050565b600081519050919050565b7f4e487b7100000000000000000000000000000000000000000000000000000000600052604160045260246000fd5b7f4e487b7100000000000000000000000000000000000000000000000000000000600052602260045260246000fd5b60006002820490506001821680620002f757607f821691505b6020821081036200030d576200030c620002af565b5b50919050565b60008190508160005260206000209050919050565b60006020601f8301049050919050565b600082821b905092915050565b600060088302620003777fffffffffffffffffffffffffffffffffffffffffffffffffffffffffffffffff8262000338565b62000383868362000338565b95508019841693508086168417925050509392505050565b6000819050919050565b6000819050919050565b6000620003d0620003ca620003c4846200039b565b620003a5565b6200039b565b9050919050565b6000819050919050565b620003ec83620003af565b62000404620003fb82620003d7565b84845462000345565b825550505050565b600090565b6200041b6200040c565b62000428818484620003e1565b505050565b5b8181101562000450576200044460008262000411565b6001810190506200042e565b5050565b601f8211156200049f57620004698162000313565b620004748462000328565b8101602085101562000484578190505b6200049c620004938562000328565b8301826200042d565b50505b505050565b600082821c905092915050565b6000620004c460001984600802620004a4565b1980831691505092915050565b6000620004df8383620004b1565b9150826002028217905092915050565b620004fa8262000275565b67ffffffffffffffff81111562000516576200051562000280565b5b620005228254620002de565b6200052f82828562000454565b600060209050601f83116001811462000567576000841562000552578287015190505b6200055e8582620004d1565b865550620005ce565b601f198416620005778662000313565b60005b82811015620005a1578489015182556001820191506020850194506020810190506200057a565b86831015620005c15784890151620005bd601f891682620004b1565b8355505b6001600288020188555050505b505050505050565b600073ffffffffffffffffffffffffffffffffffffffff82169050919050565b60006200060382620005d6565b9050919050565b6200061581620005f6565b82525050565b60006020820190506200063260008301846200060a565b92915050565b61521680620006486000396000f3fe608060405234801561001057600080fd5b50600436106102065760003560e01c806370a082311161011a578063b33c9abe116100ad578063c87b56dd1161007c578063c87b56dd1461063e578063d206dc721461066e578063e985e9c51461068a578063f2fde38b146106ba578063fcee2eb2146106d657610206565b8063b33c9abe146105a1578063b88d4fde146105d1578063b9db15b4146105ed578063c50903461461062257610206565b80638bb27d02116100e95780638bb27d02146105195780638da5cb5b1461054957806395d89b4114610567578063a22cb4651461058557610206565b806370a0823114610491578063715018a6146104c15780638462a7f8146104cb57806387592bce146104e957610206565b80632dea85e51161019d57806347d25c251161016c57806347d25c25146103af5780634de91a63146103df57806352abc59b146103fd5780635ac442821461042d5780636352211e1461046157610206565b80632dea85e51461032b5780632e6690f41461034757806336734de91461037757806342842e0e1461039357610206565b80631f1902e2116101d95780631f1902e2146102a557806323b872dd146102c3578063247f5ba9146102df578063293bb2c11461030f57610206565b806301ffc9a71461020b57806306fdde031461023b578063081812fc14610259578063095ea7b314610289575b600080fd5b610225600480360381019061022091906139b2565b6106f4565b60405161023291906139fa565b60405180910390f35b610243610755565b6040516102509190613aa5565b60405180910390f35b610273600480360381019061026e9190613afd565b6107e7565b6040516102809190613b6b565b60405180910390f35b6102a3600480360381019061029e9190613bb2565b610803565b005b6102ad610819565b6040516102ba91906139fa565b60405180910390f35b6102dd60048036038101906102d89190613bf2565b61082c565b005b6102f960048036038101906102f49190613afd565b61092e565b6040516103069190613c54565b60405180910390f35b61032960048036038101906103249190613cd4565b6109b3565b005b61034560048036038101906103409190613d74565b610ddb565b005b610361600480360381019061035c9190613e0a565b610e3e565b60405161036e9190613c54565b60405180910390f35b610391600480360381019061038c9190613ee3565b6115a1565b005b6103ad60048036038101906103a89190613bf2565b61187c565b005b6103c960048036038101906103c49190613afd565b61189c565b6040516103d691906139fa565b60405180910390f35b6103e76118bc565b6040516103f49190613c54565b60405180910390f35b61041760048036038101906104129190613f52565b6118c2565b60405161042491906139fa565b60405180910390f35b61044760048036038101906104429190613afd565b6118e2565b60405161045895949392919061403d565b60405180910390f35b61047b60048036038101906104769190613afd565b611a95565b6040516104889190613b6b565b60405180910390f35b6104ab60048036038101906104a69190613f52565b611aa7565b6040516104b89190613c54565b60405180910390f35b6104c9611b61565b005b6104d3611b75565b6040516104e09190613c54565b60405180910390f35b61050360048036038101906104fe919061409e565b611b7b565b6040516105109190613c54565b60405180910390f35b610533600480360381019061052e9190613afd565b611ef0565b604051610540919061429d565b60405180910390f35b61055161210f565b60405161055e9190613b6b565b60405180910390f35b61056f612139565b60405161057c9190613aa5565b60405180910390f35b61059f600480360381019061059a9190613d74565b6121cb565b005b6105bb60048036038101906105b69190613afd565b6121e1565b6040516105c891906142bf565b60405180910390f35b6105eb60048036038101906105e69190614411565b6122b4565b005b61060760048036038101906106029190613afd565b6122d9565b60405161061996959493929190614494565b60405180910390f35b61063c60048036038101906106379190613f52565b61240c565b005b61065860048036038101906106539190613afd565b6124a2565b6040516106659190613aa5565b60405180910390f35b61068860048036038101906106839190613afd565b6125b5565b005b6106a4600480360381019061069f91906144f5565b61272b565b6040516106b191906139fa565b60405180910390f35b6106d460048036038101906106cf9190613f52565b6127bf565b005b6106de612845565b6040516106eb9190613b6b565b60405180910390f35b6000634906490660e01b7bffffffffffffffffffffffffffffffffffffffffffffffffffffffff1916827bffffffffffffffffffffffffffffffffffffffffffffffffffffffff1916148061074e575061074d8261286b565b5b9050919050565b60606000805461076490614564565b80601f016020809104026020016040519081016040528092919081815260200182805461079090614564565b80156107dd5780601f106107b2576101008083540402835291602001916107dd565b820191906000526020600020905b8154815290600101906020018083116107c057829003601f168201915b5050505050905090565b60006107f28261294d565b506107fc826129d5565b9050919050565b6108158282610810612a12565b612a1a565b5050565b600f60149054906101000a900460ff1681565b600073ffffffffffffffffffffffffffffffffffffffff168273ffffffffffffffffffffffffffffffffffffffff160361089e5760006040517f64a0ae920000000000000000000000000000000000000000000000000000000081526004016108959190613b6b565b60405180910390fd5b60006108b283836108ad612a12565b612a2c565b90508373ffffffffffffffffffffffffffffffffffffffff168173ffffffffffffffffffffffffffffffffffffffff1614610928578382826040517f64283d7b00000000000000000000000000000000000000000000000000000000815260040161091f93929190614595565b60405180910390fd5b50505050565b6000816008600082815260200190815260200160002060040160149054906101000a900460ff16610994576040517f08c379a000000000000000000000000000000000000000000000000000000000815260040161098b90614618565b60405180910390fd5b6008600084815260200190815260200160002060050154915050919050565b836008600082815260200190815260200160002060040160149054906101000a900460ff16610a17576040517f08c379a0000000000000000000000000000000000000000000000000000000008152600401610a0e90614618565b60405180910390fd5b60006008600087815260200190815260200160002090508060030160149054906101000a900460ff1615610a80576040517f08c379a0000000000000000000000000000000000000000000000000000000008152600401610a7790614684565b60405180910390fd5b8060030160009054906101000a900473ffffffffffffffffffffffffffffffffffffffff1673ffffffffffffffffffffffffffffffffffffffff163373ffffffffffffffffffffffffffffffffffffffff1614610b12576040517f08c379a0000000000000000000000000000000000000000000000000000000008152600401610b09906146f0565b60405180910390fd5b600073ffffffffffffffffffffffffffffffffffffffff168573ffffffffffffffffffffffffffffffffffffffff1603610b81576040517f08c379a0000000000000000000000000000000000000000000000000000000008152600401610b789061475c565b60405180910390fd5b60008160030160009054906101000a900473ffffffffffffffffffffffffffffffffffffffff169050858260030160006101000a81548173ffffffffffffffffffffffffffffffffffffffff021916908373ffffffffffffffffffffffffffffffffffffffff1602179055506009600088815260200190815260200160002060405180608001604052808373ffffffffffffffffffffffffffffffffffffffff1681526020018873ffffffffffffffffffffffffffffffffffffffff16815260200187878080601f016020809104026020016040519081016040528093929190818152602001838380828437600081840152601f19601f82011690508083019250505050505050815260200142815250908060018154018082558091505060019003906000526020600020906004020160009091909190915060008201518160000160006101000a81548173ffffffffffffffffffffffffffffffffffffffff021916908373ffffffffffffffffffffffffffffffffffffffff16021790555060208201518160010160006101000a81548173ffffffffffffffffffffffffffffffffffffffff021916908373ffffffffffffffffffffffffffffffffffffffff1602179055506040820151816002019081610d5d9190614928565b506060820151816003015550508573ffffffffffffffffffffffffffffffffffffffff168173ffffffffffffffffffffffffffffffffffffffff16887f7b9954163fa07d871126e4bf9e86dd39a340304d4ffa6a8f7b5eae106152ee038888604051610dca929190614a27565b60405180910390a450505050505050565b610de3612c46565b80600b60008473ffffffffffffffffffffffffffffffffffffffff1673ffffffffffffffffffffffffffffffffffffffff16815260200190815260200160002060006101000a81548160ff0219169083151502179055505050565b6000600b60003373ffffffffffffffffffffffffffffffffffffffff1673ffffffffffffffffffffffffffffffffffffffff16815260200190815260200160002060009054906101000a900460ff16610ecc576040517f08c379a0000000000000000000000000000000000000000000000000000000008152600401610ec390614a97565b60405180910390fd5b828290508585905014610f14576040517f08c379a0000000000000000000000000000000000000000000000000000000008152600401610f0b90614b03565b60405180910390fd5b60008585905011610f5a576040517f08c379a0000000000000000000000000000000000000000000000000000000008152600401610f5190614b95565b60405180910390fd5b6000600e6000815480929190610f6f90614be4565b91905055905060008686905067ffffffffffffffff811115610f9457610f936142e6565b5b604051908082528060200260200182016040528015610fc25781602001602082028036833780820191505090505b50905060005b87879050811015611349576000600d6000815480929190610fe890614be4565b9190505590506040518061010001604052808a8a8581811061100d5761100c614c2c565b5b905060200281019061101f9190614c6a565b8080601f016020809104026020016040519081016040528093929190818152602001838380828437600081840152601f19601f82011690508083019250505050505050815260200188888581811061107a57611079614c2c565b5b905060200281019061108c9190614c6a565b8080601f016020809104026020016040519081016040528093929190818152602001838380828437600081840152601f19601f8201169050808301925050505050505081526020013373ffffffffffffffffffffffffffffffffffffffff1681526020013373ffffffffffffffffffffffffffffffffffffffff168152602001600015158152602001600073ffffffffffffffffffffffffffffffffffffffff168152602001600115158152602001858152506008600083815260200190815260200160002060008201518160000190816111679190614928565b50602082015181600101908161117d9190614928565b5060408201518160020160006101000a81548173ffffffffffffffffffffffffffffffffffffffff021916908373ffffffffffffffffffffffffffffffffffffffff16021790555060608201518160030160006101000a81548173ffffffffffffffffffffffffffffffffffffffff021916908373ffffffffffffffffffffffffffffffffffffffff16021790555060808201518160030160146101000a81548160ff02191690831515021790555060a08201518160040160006101000a81548173ffffffffffffffffffffffffffffffffffffffff021916908373ffffffffffffffffffffffffffffffffffffffff16021790555060c08201518160040160146101000a81548160ff02191690831515021790555060e08201518160050155905050808383815181106112b4576112b3614c2c565b5b602002602001018181525050833373ffffffffffffffffffffffffffffffffffffffff16827f5f25c590b5c7f62ed4186adca32d3118caef07e5020c6cc8268d4136df2cfef88c8c8781811061130d5761130c614c2c565b5b905060200281019061131f9190614c6a565b60405161132d929190614a27565b60405180910390a450808061134190614be4565b915050610fc8565b506040518060c001604052808381526020013373ffffffffffffffffffffffffffffffffffffffff1681526020018a8a8080601f016020809104026020016040519081016040528093929190818152602001838380828437600081840152601f19601f82011690508083019250505050505050815260200142815260200182815260200160011515815250600a60008481526020019081526020016000206000820151816000015560208201518160010160006101000a81548173ffffffffffffffffffffffffffffffffffffffff021916908373ffffffffffffffffffffffffffffffffffffffff160217905550604082015181600201908161144d9190614928565b506060820151816003015560808201518160040190805190602001906114749291906138dc565b5060a08201518160050160006101000a81548160ff0219169083151502179055509050506114a23383612ccd565b6114f0828a8a8080601f016020809104026020016040519081016040528093929190818152602001838380828437600081840152601f19601f82011690508083019250505050505050612ceb565b3373ffffffffffffffffffffffffffffffffffffffff16827f922246fd3ed6851f9c4040e58b2430ab66709b0201999454ad8934a07b6ae4378b8b8560405161153b93929190614ccd565b60405180910390a33373ffffffffffffffffffffffffffffffffffffffff16827fe7a0dd4539901a77dc3b3696dbb9aeb8e29993160bf5ba83cc5bdfa58b4085258460405161158a9190613c54565b60405180910390a381925050509695505050505050565b826008600082815260200190815260200160002060040160149054906101000a900460ff16611605576040517f08c379a00000000000000000000000000000000000000000000000000000000081526004016115fc90614618565b60405180910390fd5b82600a600082815260200190815260200160002060050160009054906101000a900460ff16611669576040517f08c379a000000000000000000000000000000000000000000000000000000000815260040161166090614d52565b60405180910390fd5b600f60149054906101000a900460ff166116b8576040517f08c379a00000000000000000000000000000000000000000000000000000000081526004016116af90614dbe565b60405180910390fd5b83600860008781526020019081526020016000206005015414611710576040517f08c379a000000000000000000000000000000000000000000000000000000000815260040161170790614e2a565b60405180910390fd5b6000858533426040516020016117299493929190614eb3565b6040516020818303038152906040528051906020012060001c90506000856008600089815260200190815260200160002060050154149050806117a1576040517f08c379a000000000000000000000000000000000000000000000000000000000815260040161179890614f4d565b60405180910390fd5b600c600083815260200190815260200160002060009054906101000a900460ff1615611802576040517f08c379a00000000000000000000000000000000000000000000000000000000081526004016117f990614fb9565b60405180910390fd5b6001600c600084815260200190815260200160002060006101000a81548160ff0219169083151502179055503373ffffffffffffffffffffffffffffffffffffffff1686887fed9bc93d654193fa946cc2a17c194c351555fc6be132407237285b2ce45b9f0760405160405180910390a450505050505050565b611897838383604051806020016040528060008152506122b4565b505050565b600c6020528060005260406000206000915054906101000a900460ff1681565b600d5481565b600b6020528060005260406000206000915054906101000a900460ff1681565b6000606060006060600085600a600082815260200190815260200160002060050160009054906101000a900460ff16611950576040517f08c379a000000000000000000000000000000000000000000000000000000000815260040161194790614d52565b60405180910390fd5b6000600a600089815260200190815260200160002090508060010160009054906101000a900473ffffffffffffffffffffffffffffffffffffffff16816002018260030154836004016119a28c611a95565b8380546119ae90614564565b80601f01602080910402602001604051908101604052809291908181526020018280546119da90614564565b8015611a275780601f106119fc57610100808354040283529160200191611a27565b820191906000526020600020905b815481529060010190602001808311611a0a57829003601f168201915b5050505050935081805480602002602001604051908101604052809291908181526020018280548015611a7957602002820191906000526020600020905b815481526020019060010190808311611a65575b5050505050915096509650965096509650505091939590929450565b6000611aa08261294d565b9050919050565b60008073ffffffffffffffffffffffffffffffffffffffff168273ffffffffffffffffffffffffffffffffffffffff1603611b1a5760006040517f89c62b64000000000000000000000000000000000000000000000000000000008152600401611b119190613b6b565b60405180910390fd5b600360008373ffffffffffffffffffffffffffffffffffffffff1673ffffffffffffffffffffffffffffffffffffffff168152602001908152602001600020549050919050565b611b69612c46565b611b736000612d47565b565b600e5481565b6000600b60003373ffffffffffffffffffffffffffffffffffffffff1673ffffffffffffffffffffffffffffffffffffffff16815260200190815260200160002060009054906101000a900460ff16611c09576040517f08c379a0000000000000000000000000000000000000000000000000000000008152600401611c0090614a97565b60405180910390fd5b6000600d6000815480929190611c1e90614be4565b91905055905060405180610100016040528087878080601f016020809104026020016040519081016040528093929190818152602001838380828437600081840152601f19601f82011690508083019250505050505050815260200185858080601f016020809104026020016040519081016040528093929190818152602001838380828437600081840152601f19601f8201169050808301925050505050505081526020013373ffffffffffffffffffffffffffffffffffffffff1681526020013373ffffffffffffffffffffffffffffffffffffffff168152602001600015158152602001600073ffffffffffffffffffffffffffffffffffffffff1681526020016001151581526020016000815250600860008381526020019081526020016000206000820151816000019081611d589190614928565b506020820151816001019081611d6e9190614928565b5060408201518160020160006101000a81548173ffffffffffffffffffffffffffffffffffffffff021916908373ffffffffffffffffffffffffffffffffffffffff16021790555060608201518160030160006101000a81548173ffffffffffffffffffffffffffffffffffffffff021916908373ffffffffffffffffffffffffffffffffffffffff16021790555060808201518160030160146101000a81548160ff02191690831515021790555060a08201518160040160006101000a81548173ffffffffffffffffffffffffffffffffffffffff021916908373ffffffffffffffffffffffffffffffffffffffff16021790555060c08201518160040160146101000a81548160ff02191690831515021790555060e0820151816005015590505060003373ffffffffffffffffffffffffffffffffffffffff16827f5f25c590b5c7f62ed4186adca32d3118caef07e5020c6cc8268d4136df2cfef88989604051611edc929190614a27565b60405180910390a480915050949350505050565b6060816008600082815260200190815260200160002060040160149054906101000a900460ff16611f56576040517f08c379a0000000000000000000000000000000000000000000000000000000008152600401611f4d90614618565b60405180910390fd5b60096000848152602001908152602001600020805480602002602001604051908101604052809291908181526020016000905b8282101561210357838290600052602060002090600402016040518060800160405290816000820160009054906101000a900473ffffffffffffffffffffffffffffffffffffffff1673ffffffffffffffffffffffffffffffffffffffff1673ffffffffffffffffffffffffffffffffffffffff1681526020016001820160009054906101000a900473ffffffffffffffffffffffffffffffffffffffff1673ffffffffffffffffffffffffffffffffffffffff1673ffffffffffffffffffffffffffffffffffffffff16815260200160028201805461206890614564565b80601f016020809104026020016040519081016040528092919081815260200182805461209490614564565b80156120e15780601f106120b6576101008083540402835291602001916120e1565b820191906000526020600020905b8154815290600101906020018083116120c457829003601f168201915b5050505050815260200160038201548152505081526020019060010190611f89565b50505050915050919050565b6000600760009054906101000a900473ffffffffffffffffffffffffffffffffffffffff16905090565b60606001805461214890614564565b80601f016020809104026020016040519081016040528092919081815260200182805461217490614564565b80156121c15780601f10612196576101008083540402835291602001916121c1565b820191906000526020600020905b8154815290600101906020018083116121a457829003601f168201915b5050505050905090565b6121dd6121d6612a12565b8383612e0d565b5050565b606081600a600082815260200190815260200160002060050160009054906101000a900460ff16612247576040517f08c379a000000000000000000000000000000000000000000000000000000000815260040161223e90614d52565b60405180910390fd5b600a60008481526020019081526020016000206004018054806020026020016040519081016040528092919081815260200182805480156122a757602002820191906000526020600020905b815481526020019060010190808311612293575b5050505050915050919050565b6122bf84848461082c565b6122d36122ca612a12565b85858585612f7c565b50505050565b600080600080600080866008600082815260200190815260200160002060040160149054906101000a900460ff16612346576040517f08c379a000000000000000000000000000000000000000000000000000000000815260040161233d90614618565b60405180910390fd5b6000600860008a815260200190815260200160002090508060020160009054906101000a900473ffffffffffffffffffffffffffffffffffffffff168160030160009054906101000a900473ffffffffffffffffffffffffffffffffffffffff168260030160149054906101000a900460ff168360040160149054906101000a900460ff168460040160009054906101000a900473ffffffffffffffffffffffffffffffffffffffff168560050154975097509750975097509750505091939550919395565b612414612c46565b80600f60006101000a81548173ffffffffffffffffffffffffffffffffffffffff021916908373ffffffffffffffffffffffffffffffffffffffff160217905550600073ffffffffffffffffffffffffffffffffffffffff168173ffffffffffffffffffffffffffffffffffffffff161415600f60146101000a81548160ff02191690831515021790555050565b60606124ad8261294d565b5060006006600084815260200190815260200160002080546124ce90614564565b80601f01602080910402602001604051908101604052809291908181526020018280546124fa90614564565b80156125475780601f1061251c57610100808354040283529160200191612547565b820191906000526020600020905b81548152906001019060200180831161252a57829003601f168201915b50505050509050600061255861312d565b9050600081510361256d5781925050506125b0565b6000825111156125a257808260405160200161258a929190615015565b604051602081830303815290604052925050506125b0565b6125ab84613144565b925050505b919050565b806008600082815260200190815260200160002060040160149054906101000a900460ff16612619576040517f08c379a000000000000000000000000000000000000000000000000000000000815260040161261090614618565b60405180910390fd5b60006008600084815260200190815260200160002090508060030160149054906101000a900460ff1615612682576040517f08c379a000000000000000000000000000000000000000000000000000000000815260040161267990615085565b60405180910390fd5b60018160030160146101000a81548160ff021916908315150217905550338160040160006101000a81548173ffffffffffffffffffffffffffffffffffffffff021916908373ffffffffffffffffffffffffffffffffffffffff1602179055503373ffffffffffffffffffffffffffffffffffffffff16837fab60911bebc6d3ab48620594e409545834da76f4995297ebc48ca5589f25437b60405160405180910390a3505050565b6000600560008473ffffffffffffffffffffffffffffffffffffffff1673ffffffffffffffffffffffffffffffffffffffff16815260200190815260200160002060008373ffffffffffffffffffffffffffffffffffffffff1673ffffffffffffffffffffffffffffffffffffffff16815260200190815260200160002060009054906101000a900460ff16905092915050565b6127c7612c46565b600073ffffffffffffffffffffffffffffffffffffffff168173ffffffffffffffffffffffffffffffffffffffff16036128395760006040517f1e4fbdf70000000000000000000000000000000000000000000000000000000081526004016128309190613b6b565b60405180910390fd5b61284281612d47565b50565b600f60009054906101000a900473ffffffffffffffffffffffffffffffffffffffff1681565b60007f80ac58cd000000000000000000000000000000000000000000000000000000007bffffffffffffffffffffffffffffffffffffffffffffffffffffffff1916827bffffffffffffffffffffffffffffffffffffffffffffffffffffffff1916148061293657507f5b5e139f000000000000000000000000000000000000000000000000000000007bffffffffffffffffffffffffffffffffffffffffffffffffffffffff1916827bffffffffffffffffffffffffffffffffffffffffffffffffffffffff1916145b806129465750612945826131ad565b5b9050919050565b60008061295983613217565b9050600073ffffffffffffffffffffffffffffffffffffffff168173ffffffffffffffffffffffffffffffffffffffff16036129cc57826040517f7e2732890000000000000000000000000000000000000000000000000000000081526004016129c39190613c54565b60405180910390fd5b80915050919050565b60006004600083815260200190815260200160002060009054906101000a900473ffffffffffffffffffffffffffffffffffffffff169050919050565b600033905090565b612a278383836001613254565b505050565b600080612a3884613217565b9050600073ffffffffffffffffffffffffffffffffffffffff168373ffffffffffffffffffffffffffffffffffffffff1614612a7a57612a79818486613419565b5b600073ffffffffffffffffffffffffffffffffffffffff168173ffffffffffffffffffffffffffffffffffffffff1614612b0b57612abc600085600080613254565b6001600360008373ffffffffffffffffffffffffffffffffffffffff1673ffffffffffffffffffffffffffffffffffffffff168152602001908152602001600020600082825403925050819055505b600073ffffffffffffffffffffffffffffffffffffffff168573ffffffffffffffffffffffffffffffffffffffff1614612b8e576001600360008773ffffffffffffffffffffffffffffffffffffffff1673ffffffffffffffffffffffffffffffffffffffff168152602001908152602001600020600082825401925050819055505b846002600086815260200190815260200160002060006101000a81548173ffffffffffffffffffffffffffffffffffffffff021916908373ffffffffffffffffffffffffffffffffffffffff160217905550838573ffffffffffffffffffffffffffffffffffffffff168273ffffffffffffffffffffffffffffffffffffffff167fddf252ad1be2c89b69c2b068fc378daa952ba7f163c4a11628f55a4df523b3ef60405160405180910390a4809150509392505050565b612c4e612a12565b73ffffffffffffffffffffffffffffffffffffffff16612c6c61210f565b73ffffffffffffffffffffffffffffffffffffffff1614612ccb57612c8f612a12565b6040517f118cdaa7000000000000000000000000000000000000000000000000000000008152600401612cc29190613b6b565b60405180910390fd5b565b612ce78282604051806020016040528060008152506134dd565b5050565b80600660008481526020019081526020016000209081612d0b9190614928565b507ff8e1a15aba9398e019f0b49df1a4fde98ee17ae345cb5f6b5e2c27f5033e8ce782604051612d3b9190613c54565b60405180910390a15050565b6000600760009054906101000a900473ffffffffffffffffffffffffffffffffffffffff16905081600760006101000a81548173ffffffffffffffffffffffffffffffffffffffff021916908373ffffffffffffffffffffffffffffffffffffffff1602179055508173ffffffffffffffffffffffffffffffffffffffff168173ffffffffffffffffffffffffffffffffffffffff167f8be0079c531659141344cd1fd0a4f28419497f9722a3daafe3b4186f6b6457e060405160405180910390a35050565b600073ffffffffffffffffffffffffffffffffffffffff168273ffffffffffffffffffffffffffffffffffffffff1603612e7e57816040517f5b08ba18000000000000000000000000000000000000000000000000000000008152600401612e759190613b6b565b60405180910390fd5b80600560008573ffffffffffffffffffffffffffffffffffffffff1673ffffffffffffffffffffffffffffffffffffffff16815260200190815260200160002060008473ffffffffffffffffffffffffffffffffffffffff1673ffffffffffffffffffffffffffffffffffffffff16815260200190815260200160002060006101000a81548160ff0219169083151502179055508173ffffffffffffffffffffffffffffffffffffffff168373ffffffffffffffffffffffffffffffffffffffff167f17307eab39ab6107e8899845ad3d59bd9653f200f220920489ca2b5937696c3183604051612f6f91906139fa565b60405180910390a3505050565b60008373ffffffffffffffffffffffffffffffffffffffff163b1115613126578273ffffffffffffffffffffffffffffffffffffffff1663150b7a02868685856040518563ffffffff1660e01b8152600401612fdb94939291906150fa565b6020604051808303816000875af192505050801561301757506040513d601f19601f82011682018060405250810190613014919061515b565b60015b61309b573d8060008114613047576040519150601f19603f3d011682016040523d82523d6000602084013e61304c565b606091505b50600081510361309357836040517f64a0ae9200000000000000000000000000000000000000000000000000000000815260040161308a9190613b6b565b60405180910390fd5b805160208201fd5b63150b7a0260e01b7bffffffffffffffffffffffffffffffffffffffffffffffffffffffff1916817bffffffffffffffffffffffffffffffffffffffffffffffffffffffff19161461312457836040517f64a0ae9200000000000000000000000000000000000000000000000000000000815260040161311b9190613b6b565b60405180910390fd5b505b5050505050565b606060405180602001604052806000815250905090565b606061314f8261294d565b50600061315a61312d565b9050600081511161317a57604051806020016040528060008152506131a5565b8061318484613501565b604051602001613195929190615015565b6040516020818303038152906040525b915050919050565b60007f01ffc9a7000000000000000000000000000000000000000000000000000000007bffffffffffffffffffffffffffffffffffffffffffffffffffffffff1916827bffffffffffffffffffffffffffffffffffffffffffffffffffffffff1916149050919050565b60006002600083815260200190815260200160002060009054906101000a900473ffffffffffffffffffffffffffffffffffffffff169050919050565b808061328d5750600073ffffffffffffffffffffffffffffffffffffffff168273ffffffffffffffffffffffffffffffffffffffff1614155b156133c157600061329d8461294d565b9050600073ffffffffffffffffffffffffffffffffffffffff168373ffffffffffffffffffffffffffffffffffffffff161415801561330857508273ffffffffffffffffffffffffffffffffffffffff168173ffffffffffffffffffffffffffffffffffffffff1614155b801561331b5750613319818461272b565b155b1561335d57826040517fa9fbf51f0000000000000000000000000000000000000000000000000000000081526004016133549190613b6b565b60405180910390fd5b81156133bf57838573ffffffffffffffffffffffffffffffffffffffff168273ffffffffffffffffffffffffffffffffffffffff167f8c5be1e5ebec7d5bd14f71427d1e84f3dd0314c0f7b2291e5b200ac8c7c3b92560405160405180910390a45b505b836004600085815260200190815260200160002060006101000a81548173ffffffffffffffffffffffffffffffffffffffff021916908373ffffffffffffffffffffffffffffffffffffffff16021790555050505050565b6134248383836135cf565b6134d857600073ffffffffffffffffffffffffffffffffffffffff168373ffffffffffffffffffffffffffffffffffffffff160361349957806040517f7e2732890000000000000000000000000000000000000000000000000000000081526004016134909190613c54565b60405180910390fd5b81816040517f177e802f0000000000000000000000000000000000000000000000000000000081526004016134cf929190615188565b60405180910390fd5b505050565b6134e78383613690565b6134fc6134f2612a12565b6000858585612f7c565b505050565b60606000600161351084613789565b01905060008167ffffffffffffffff81111561352f5761352e6142e6565b5b6040519080825280601f01601f1916602001820160405280156135615781602001600182028036833780820191505090505b509050600082602083010190505b6001156135c4578080600190039150507f3031323334353637383961626364656600000000000000000000000000000000600a86061a8153600a85816135b8576135b76151b1565b5b0494506000850361356f575b819350505050919050565b60008073ffffffffffffffffffffffffffffffffffffffff168373ffffffffffffffffffffffffffffffffffffffff161415801561368757508273ffffffffffffffffffffffffffffffffffffffff168473ffffffffffffffffffffffffffffffffffffffff1614806136485750613647848461272b565b5b8061368657508273ffffffffffffffffffffffffffffffffffffffff1661366e836129d5565b73ffffffffffffffffffffffffffffffffffffffff16145b5b90509392505050565b600073ffffffffffffffffffffffffffffffffffffffff168273ffffffffffffffffffffffffffffffffffffffff16036137025760006040517f64a0ae920000000000000000000000000000000000000000000000000000000081526004016136f99190613b6b565b60405180910390fd5b600061371083836000612a2c565b9050600073ffffffffffffffffffffffffffffffffffffffff168173ffffffffffffffffffffffffffffffffffffffff16146137845760006040517f73c6ac6e00000000000000000000000000000000000000000000000000000000815260040161377b9190613b6b565b60405180910390fd5b505050565b600080600090507a184f03e93ff9f4daa797ed6e38ed64bf6a1f01000000000000000083106137e7577a184f03e93ff9f4daa797ed6e38ed64bf6a1f01000000000000000083816137dd576137dc6151b1565b5b0492506040810190505b6d04ee2d6d415b85acef81000000008310613824576d04ee2d6d415b85acef8100000000838161381a576138196151b1565b5b0492506020810190505b662386f26fc10000831061385357662386f26fc100008381613849576138486151b1565b5b0492506010810190505b6305f5e100831061387c576305f5e1008381613872576138716151b1565b5b0492506008810190505b61271083106138a1576127108381613897576138966151b1565b5b0492506004810190505b606483106138c457606483816138ba576138b96151b1565b5b0492506002810190505b600a83106138d3576001810190505b80915050919050565b828054828255906000526020600020908101928215613918579160200282015b828111156139175782518255916020019190600101906138fc565b5b5090506139259190613929565b5090565b5b8082111561394257600081600090555060010161392a565b5090565b6000604051905090565b600080fd5b600080fd5b60007fffffffff0000000000000000000000000000000000000000000000000000000082169050919050565b61398f8161395a565b811461399a57600080fd5b50565b6000813590506139ac81613986565b92915050565b6000602082840312156139c8576139c7613950565b5b60006139d68482850161399d565b91505092915050565b60008115159050919050565b6139f4816139df565b82525050565b6000602082019050613a0f60008301846139eb565b92915050565b600081519050919050565b600082825260208201905092915050565b60005b83811015613a4f578082015181840152602081019050613a34565b60008484015250505050565b6000601f19601f8301169050919050565b6000613a7782613a15565b613a818185613a20565b9350613a91818560208601613a31565b613a9a81613a5b565b840191505092915050565b60006020820190508181036000830152613abf8184613a6c565b905092915050565b6000819050919050565b613ada81613ac7565b8114613ae557600080fd5b50565b600081359050613af781613ad1565b92915050565b600060208284031215613b1357613b12613950565b5b6000613b2184828501613ae8565b91505092915050565b600073ffffffffffffffffffffffffffffffffffffffff82169050919050565b6000613b5582613b2a565b9050919050565b613b6581613b4a565b82525050565b6000602082019050613b806000830184613b5c565b92915050565b613b8f81613b4a565b8114613b9a57600080fd5b50565b600081359050613bac81613b86565b92915050565b60008060408385031215613bc957613bc8613950565b5b6000613bd785828601613b9d565b9250506020613be885828601613ae8565b9150509250929050565b600080600060608486031215613c0b57613c0a613950565b5b6000613c1986828701613b9d565b9350506020613c2a86828701613b9d565b9250506040613c3b86828701613ae8565b9150509250925092565b613c4e81613ac7565b82525050565b6000602082019050613c696000830184613c45565b92915050565b600080fd5b600080fd5b600080fd5b60008083601f840112613c9457613c93613c6f565b5b8235905067ffffffffffffffff811115613cb157613cb0613c74565b5b602083019150836001820283011115613ccd57613ccc613c79565b5b9250929050565b60008060008060608587031215613cee57613ced613950565b5b6000613cfc87828801613ae8565b9450506020613d0d87828801613b9d565b935050604085013567ffffffffffffffff811115613d2e57613d2d613955565b5b613d3a87828801613c7e565b925092505092959194509250565b613d51816139df565b8114613d5c57600080fd5b50565b600081359050613d6e81613d48565b92915050565b60008060408385031215613d8b57613d8a613950565b5b6000613d9985828601613b9d565b9250506020613daa85828601613d5f565b9150509250929050565b60008083601f840112613dca57613dc9613c6f565b5b8235905067ffffffffffffffff811115613de757613de6613c74565b5b602083019150836020820283011115613e0357613e02613c79565b5b9250929050565b60008060008060008060608789031215613e2757613e26613950565b5b600087013567ffffffffffffffff811115613e4557613e44613955565b5b613e5189828a01613c7e565b9650965050602087013567ffffffffffffffff811115613e7457613e73613955565b5b613e8089828a01613db4565b9450945050604087013567ffffffffffffffff811115613ea357613ea2613955565b5b613eaf89828a01613db4565b92509250509295509295509295565b600080fd5b60006101208284031215613eda57613ed9613ebe565b5b81905092915050565b600080600060608486031215613efc57613efb613950565b5b6000613f0a86828701613ae8565b9350506020613f1b86828701613ae8565b925050604084013567ffffffffffffffff811115613f3c57613f3b613955565b5b613f4886828701613ec3565b9150509250925092565b600060208284031215613f6857613f67613950565b5b6000613f7684828501613b9d565b91505092915050565b600081519050919050565b600082825260208201905092915050565b6000819050602082019050919050565b613fb481613ac7565b82525050565b6000613fc68383613fab565b60208301905092915050565b6000602082019050919050565b6000613fea82613f7f565b613ff48185613f8a565b9350613fff83613f9b565b8060005b838110156140305781516140178882613fba565b975061402283613fd2565b925050600181019050614003565b5085935050505092915050565b600060a0820190506140526000830188613b5c565b81810360208301526140648187613a6c565b90506140736040830186613c45565b81810360608301526140858185613fdf565b90506140946080830184613b5c565b9695505050505050565b600080600080604085870312156140b8576140b7613950565b5b600085013567ffffffffffffffff8111156140d6576140d5613955565b5b6140e287828801613c7e565b9450945050602085013567ffffffffffffffff81111561410557614104613955565b5b61411187828801613c7e565b925092505092959194509250565b600081519050919050565b600082825260208201905092915050565b6000819050602082019050919050565b61415481613b4a565b82525050565b600082825260208201905092915050565b600061417682613a15565b614180818561415a565b9350614190818560208601613a31565b61419981613a5b565b840191505092915050565b60006080830160008301516141bc600086018261414b565b5060208301516141cf602086018261414b565b50604083015184820360408601526141e7828261416b565b91505060608301516141fc6060860182613fab565b508091505092915050565b600061421383836141a4565b905092915050565b6000602082019050919050565b60006142338261411f565b61423d818561412a565b93508360208202850161424f8561413b565b8060005b8581101561428b578484038952815161426c8582614207565b94506142778361421b565b925060208a01995050600181019050614253565b50829750879550505050505092915050565b600060208201905081810360008301526142b78184614228565b905092915050565b600060208201905081810360008301526142d98184613fdf565b905092915050565b600080fd5b7f4e487b7100000000000000000000000000000000000000000000000000000000600052604160045260246000fd5b61431e82613a5b565b810181811067ffffffffffffffff8211171561433d5761433c6142e6565b5b80604052505050565b6000614350613946565b905061435c8282614315565b919050565b600067ffffffffffffffff82111561437c5761437b6142e6565b5b61438582613a5b565b9050602081019050919050565b82818337600083830152505050565b60006143b46143af84614361565b614346565b9050828152602081018484840111156143d0576143cf6142e1565b5b6143db848285614392565b509392505050565b600082601f8301126143f8576143f7613c6f565b5b81356144088482602086016143a1565b91505092915050565b6000806000806080858703121561442b5761442a613950565b5b600061443987828801613b9d565b945050602061444a87828801613b9d565b935050604061445b87828801613ae8565b925050606085013567ffffffffffffffff81111561447c5761447b613955565b5b614488878288016143e3565b91505092959194509250565b600060c0820190506144a96000830189613b5c565b6144b66020830188613b5c565b6144c360408301876139eb565b6144d060608301866139eb565b6144dd6080830185613b5c565b6144ea60a0830184613c45565b979650505050505050565b6000806040838503121561450c5761450b613950565b5b600061451a85828601613b9d565b925050602061452b85828601613b9d565b9150509250929050565b7f4e487b7100000000000000000000000000000000000000000000000000000000600052602260045260246000fd5b6000600282049050600182168061457c57607f821691505b60208210810361458f5761458e614535565b5b50919050565b60006060820190506145aa6000830186613b5c565b6145b76020830185613c45565b6145c46040830184613b5c565b949350505050565b7f496e76616c69642070726f647563740000000000000000000000000000000000600082015250565b6000614602600f83613a20565b915061460d826145cc565b602082019050919050565b60006020820190508181036000830152614631816145f5565b9050919050565b7f416c726561647920766572696669656420627920637573746f6d657200000000600082015250565b600061466e601c83613a20565b915061467982614638565b602082019050919050565b6000602082019050818103600083015261469d81614661565b9050919050565b7f4f6e6c792063757272656e7420686f6c6465722063616e207472616e73666572600082015250565b60006146da602083613a20565b91506146e5826146a4565b602082019050919050565b60006020820190508181036000830152614709816146cd565b9050919050565b7f496e76616c696420726563697069656e74000000000000000000000000000000600082015250565b6000614746601183613a20565b915061475182614710565b602082019050919050565b6000602082019050818103600083015261477581614739565b9050919050565b60008190508160005260206000209050919050565b60006020601f8301049050919050565b600082821b905092915050565b6000600883026147de7fffffffffffffffffffffffffffffffffffffffffffffffffffffffffffffffff826147a1565b6147e886836147a1565b95508019841693508086168417925050509392505050565b6000819050919050565b600061482561482061481b84613ac7565b614800565b613ac7565b9050919050565b6000819050919050565b61483f8361480a565b61485361484b8261482c565b8484546147ae565b825550505050565b600090565b61486861485b565b614873818484614836565b505050565b5b818110156148975761488c600082614860565b600181019050614879565b5050565b601f8211156148dc576148ad8161477c565b6148b684614791565b810160208510156148c5578190505b6148d96148d185614791565b830182614878565b50505b505050565b600082821c905092915050565b60006148ff600019846008026148e1565b1980831691505092915050565b600061491883836148ee565b9150826002028217905092915050565b61493182613a15565b67ffffffffffffffff81111561494a576149496142e6565b5b6149548254614564565b61495f82828561489b565b600060209050601f8311600181146149925760008415614980578287015190505b61498a858261490c565b8655506149f2565b601f1984166149a08661477c565b60005b828110156149c8578489015182556001820191506020850194506020810190506149a3565b868310156149e557848901516149e1601f8916826148ee565b8355505b6001600288020188555050505b505050505050565b6000614a068385613a20565b9350614a13838584614392565b614a1c83613a5b565b840190509392505050565b60006020820190508181036000830152614a428184866149fa565b90509392505050565b7f4e6f7420617574686f72697a6564206d616e7566616374757265720000000000600082015250565b6000614a81601b83613a20565b9150614a8c82614a4b565b602082019050919050565b60006020820190508181036000830152614ab081614a74565b9050919050565b7f417272617973206c656e677468206d69736d6174636800000000000000000000600082015250565b6000614aed601683613a20565b9150614af882614ab7565b602082019050919050565b60006020820190508181036000830152614b1c81614ae0565b9050919050565b7f4261746368206d7573742068617665206174206c65617374206f6e652070726f60008201527f6475637400000000000000000000000000000000000000000000000000000000602082015250565b6000614b7f602483613a20565b9150614b8a82614b23565b604082019050919050565b60006020820190508181036000830152614bae81614b72565b9050919050565b7f4e487b7100000000000000000000000000000000000000000000000000000000600052601160045260246000fd5b6000614bef82613ac7565b91507fffffffffffffffffffffffffffffffffffffffffffffffffffffffffffffffff8203614c2157614c20614bb5565b5b600182019050919050565b7f4e487b7100000000000000000000000000000000000000000000000000000000600052603260045260246000fd5b600080fd5b600080fd5b600080fd5b60008083356001602003843603038112614c8757614c86614c5b565b5b80840192508235915067ffffffffffffffff821115614ca957614ca8614c60565b5b602083019250600182023603831315614cc557614cc4614c65565b5b509250929050565b60006040820190508181036000830152614ce88185876149fa565b90508181036020830152614cfc8184613fdf565b9050949350505050565b7f496e76616c696420626174636800000000000000000000000000000000000000600082015250565b6000614d3c600d83613a20565b9150614d4782614d06565b602082019050919050565b60006020820190508181036000830152614d6b81614d2f565b9050919050565b7f5a4b20766572696669636174696f6e206e6f7420656e61626c65640000000000600082015250565b6000614da8601b83613a20565b9150614db382614d72565b602082019050919050565b60006020820190508181036000830152614dd781614d9b565b9050919050565b7f50726f64756374206e6f7420696e206261746368000000000000000000000000600082015250565b6000614e14601483613a20565b9150614e1f82614dde565b602082019050919050565b60006020820190508181036000830152614e4381614e07565b9050919050565b6000819050919050565b614e65614e6082613ac7565b614e4a565b82525050565b60008160601b9050919050565b6000614e8382614e6b565b9050919050565b6000614e9582614e78565b9050919050565b614ead614ea882613b4a565b614e8a565b82525050565b6000614ebf8287614e54565b602082019150614ecf8286614e54565b602082019150614edf8285614e9c565b601482019150614eef8284614e54565b60208201915081905095945050505050565b7f496e76616c6964205a4b2070726f6f6600000000000000000000000000000000600082015250565b6000614f37601083613a20565b9150614f4282614f01565b602082019050919050565b60006020820190508181036000830152614f6681614f2a565b9050919050565b7f50726f6f6620616c726561647920757365640000000000000000000000000000600082015250565b6000614fa3601283613a20565b9150614fae82614f6d565b602082019050919050565b60006020820190508181036000830152614fd281614f96565b9050919050565b600081905092915050565b6000614fef82613a15565b614ff98185614fd9565b9350615009818560208601613a31565b80840191505092915050565b60006150218285614fe4565b915061502d8284614fe4565b91508190509392505050565b7f416c726561647920766572696669656400000000000000000000000000000000600082015250565b600061506f601083613a20565b915061507a82615039565b602082019050919050565b6000602082019050818103600083015261509e81615062565b9050919050565b600081519050919050565b600082825260208201905092915050565b60006150cc826150a5565b6150d681856150b0565b93506150e6818560208601613a31565b6150ef81613a5b565b840191505092915050565b600060808201905061510f6000830187613b5c565b61511c6020830186613b5c565b6151296040830185613c45565b818103606083015261513b81846150c1565b905095945050505050565b60008151905061515581613986565b92915050565b60006020828403121561517157615170613950565b5b600061517f84828501615146565b91505092915050565b600060408201905061519d6000830185613b5c565b6151aa6020830184613c45565b9392505050565b7f4e487b7100000000000000000000000000000000000000000000000000000000600052601260045260246000fdfea26469706673582212209876f7876f4228ed6bc108f4d11ef707f83a039b31847fbd228415f4655a7f8b64736f6c63430008140033",
  "linkReferences": {},
  "deployedLinkReferences": {}
}